:100000000C942F1E0C944C1E0C944C1E0C944C1EE5
:100010000C944C1E0C944C1E0C944C1E0C944C1EB8
:100020000C944C1E0C944C1E0C944C1E0C944C1EA8
:100030000C944C1E0C944C1E0C944C1E0C944C1E98
:100040000C944C1E0C944C1E0C944C1E0C944C1E88
:100050000C944C1E0C944C1E0C944C1E0C944C1E78
:100060000C944C1E0C944C1E0C944C1E0C944C1E68
:100070000C944C1E0C944C1E0C944C1E0C944C1E58
:100080000C944C1E0C944C1E0C944C1E0C944C1E48
:100090000C944C1E0C944C1E0C944C1E0C944C1E38
:1000A0000C944C1E0C944C1E0C944C1E819F823F51
:1000B00083FF870FA070A4A83FA903AFB800010277
:1000C000030507090C0F1215181C2024282C3135A4
:1000D0003A3F44494F545A60666C72797F5F1161B0
:1000E00012621264126613671369136B136D146F37
:1000F0001471147415761578157A167D168016828B
:1001000017851788188B188E1891199419971A9AB1
:100110001A9E1AA11BA51BA91CAD1CB11CB51DB9AB
:100120001DBE1DC21EC61ECB1ED01FD51FD91FDE71
:100130001FE320E820ED20F320F820FD205D125E73
:10014000126012611263136513671369146B146DE7
:10015000146F1571157315751678167A167D17803C
:10016000178218851888188B198E19911A951A9864
:100170001B9B1B9F1BA31CA71CAB1DAF1DB31DB757
:100180001EBC1EC01FC51FC91FCE20D320D820DD16
:1001900020E221E821ED21F221F721FD215A125C14
:1001A000125D125F13611362136414661468146A9B
:1001B000156C156E1570167316751678177A177DEF
:1001C0001880188218851988198B1A8F1A921B9516
:1001D0001B991C9D1CA01CA41DA81DAC1EB11EB506
:1001E0001FBA1FBE1FC320C820CD21D221D721DCBA
:1001F00021E122E722EC22F222F722FD22581259B5
:10020000125B135C135E136014621463146515674C
:100210001569156C166E1670167217751777187AA1
:10022000187D1880198219851A891A8C1B8F1B93C7
:100230001C961C9A1D9E1DA21EA61EAA1FAE1FB3B1
:1002400020B720BC20C121C621CB22D022D622DB60
:1002500023E023E623EC23F123F723FD2355125754
:100260001258135A135B135D145F14611463156500
:1002700015671669166B166D177017721874187754
:10028000187A197D19801A831A861B891B8C1C9079
:100290001C931D971D9B1E9F1EA31FA71FAC20B064
:1002A00020B521BA21BF22C422C923CF23D423DA07
:1002B00024DF24E524EB24F125F725FD25521254F3
:1002C000135513571359145A145C145E15601562B4
:1002D000156416661668176A176D176F187118740B
:1002E0001977197A1A7C1A801B831B861C891C8D2E
:1002F0001D901E941E981F9C1FA020A520A921AE12
:1003000021B322B822BD23C223C724CD24D325D8AC
:1003100025DE25E426EA26F026F626FC2650125194
:1003200013531354135614581459155B155D155F68
:100330001661166316651767176A186C186E1971BF
:1003400019741A761A791B7C1B801C831C861D8AE3
:100350001E8D1E911F951F99209D21A221A622ABC3
:1003600022B023B524BA24C025C525CB26D126D753
:1003700026DD27E327E927F027F628FC284D134F31
:10038000135013521453145514561558155A165C1D
:10039000165E16601762176418661869196B196E75
:1003A0001A701A731B761B791C7C1C801D831E8699
:1003B0001E8A1F8E20922096219A229F22A423A873
:1003C00023AD24B325B825BE26C326C927CF27D5FC
:1003D00028DC28E229E829EF29F629FC294A134CD0
:1003E000134D134F145014521553155515571659D4
:1003F000165B175D175F18611863196619681A6A2A
:100400001A6D1B701B731C761C791D7C1E801E834D
:100410001F87208B208F21932297229C23A024A525
:1004200025AB25B026B527BB27C128C728CD29D4A1
:1004300029DA2AE12AE72BEE2BF52BFC2B4813496E
:10044000134A144C144D144F155015521654165689
:100450001658175A175C185E1860196219651A67E2
:100460001B6A1B6C1C6F1C721D751E791E7C1F8005
:1004700020832087218B228F23942398249D25A2DB
:1004800026A727AD27B228B829BE29C52ACB2BD24B
:100490002BD82CDF2CE62CED2DF52DFC2D4513460D
:1004A00013471449144A154C154D154F1651165340
:1004B000175417561858185A195C195F1A611A649C
:1004C0001B661C691C6C1D6F1E721E751F78207CBC
:1004D000208021832287238C24902495259A269F8F
:1004E00027A428AA29AF29B52ABC2BC22CC92CD0F5
:1004F0002DD72EDE2EE52FED2FF42FFC2F421343A8
:100500001444144614471549154A164C164E174FF5
:10051000175117531855185719591A5B1A5E1B6053
:100520001B621C651D681D6B1E6E1F712074207878
:10053000217C228023842488258C25912696279B44
:1005400028A129A62AAC2BB22CB92DBF2EC62ECDA0
:100550002FD530DC30E431EC31F431FC313F134045
:10056000144114431544154615471649164A174CAD
:10057000174E184F1851195319551A581B5A1B5C0E
:100580001C5F1C611D641E671F6A1F6D2070217433
:100590002278237B248025842688278D28922997FA
:1005A0002A9D2BA32CA92DAF2EB62FBD30C431CB45
:1005B00031D332DB33E333EB34F334FB343C143DDF
:1005C000143E144015411542164416451647174966
:1005D000174A184C194E19501A521A541B561C58C7
:1005E0001C5B1D5D1E601E631F662069216C2270EE
:1005F00023732477257B268027842889298E2A93B4
:100600002B992C9F2DA52FAB30B231B932C133C8F5
:1006100034D035D935E136EA36F237FB3739143A7A
:10062000143B153D153E153F16411642174317451D
:1006300018471848194A194C1A4E1B501B521C5483
:100640001D571D591E5C1F5F206221652268226BA9
:10065000236F24732577277B288029842A892B8F71
:100660002D942E9A2FA130A732AE33B634BE35C6A4
:1006700036CE37D638DF39E839F23AFB3A36143716
:1006800014381539153B163C163D163F17401741D7
:100690001843184519461A481A4A1B4C1C4E1C5040
:1006A0001D531E551F581F5A205D2160226323676A
:1006B000246A256E26722876297B2A802B852D8A2E
:1006C0002E903096319C32A334AA35B237BA38C254
:1006D00039CB3AD43BDD3CE73DF13DFB3E331434AE
:1006E0001435153615371638163A173B173C183E91
:1006F000183F194119431A441B461B481C4A1D4CFC
:100700001D4E1E511F5320562159225B235F246228
:1007100025652669276D29712A762B7A2D802E85ED
:10072000308B31913397359E36A638AE39B63BBF04
:100730003CC83ED13FDB40E541F041FA4230143144
:100740001532153315341635163617381739183A49
:10075000183C193D1A3F1A401B421C441C461D48B8
:100760001E4A1F4C204F205121542257235A255DE9
:100770002660276428682A6C2B702D752E7A3080AD
:100780003185338C3592379939A13BA93CB23EBBB8
:1007900040C442CE43D944E445EF46FA462D142ED8
:1007A000152F153016311632163317341735183603
:1007B000193819391A3B1A3C1B3E1C401D411D4378
:1007C0001E451F48204A214C224F235224542558AD
:1007D000275B285E29622B662C6B2E6F3074317A72
:1007E00033803586378D39943B9C3EA440AD42B66C
:1007F00044C046CB47D649E24AED4BF94B29142A6F
:10080000152B152C162D162E172F173018311833BF
:10081000193419351A371B381B3A1C3B1D3D1E3F36
:100820001F411F4320452147224A244C254F265271
:10083000275529592A5C2C602D652F69316E337339
:100840003579378039863C8E3E96419E43A746B126
:1008500048BC4AC74DD34EDF50EC51F951261427FE
:1008600015281529162A162B172C172D182E182F78
:1008700019301A311A331B341C351C371D391E3AF6
:100880001F3C203E2140224223452447254A274D34
:10089000285029532B562D5A2F5E30633268356D00
:1008A000377239793C803E87418F449847A14AACE2
:1008B0004DB750C352CF55DD57EA58F85823152489
:1008C000152415251626162717281729182A192B37
:1008D000192C1A2D1A2E1B301C311D321D341E36B8
:1008E0001F372039213B223D233F254126442747FE
:1008F000294A2A4D2C502E543058325C34613666C9
:10090000396B3B713E784180448848914B9A4FA5A2
:1009100052B156BE59CB5CD95EE860F86120152013
:1009200015211622162316231724182518261927F1
:1009300019281A291B2A1B2B1C2D1D2E1E2F1F3177
:100940002032213422362338243A253C263E2841C1
:1009500029432B462D492F4D315133553559385E9A
:100960003B633E694170447748804C895093549E64
:1009700058AA5DB761C665D668E66AF76B1C151D97
:10098000151E161E161F17201720182118221923AE
:1009900019241A251B261C271C281D291E2A1F2C3A
:1009A000202D212F22302332243426362738283A8E
:1009B0002A3D2C402E4230463249344D375139566B
:1009C0003C5B40614367476E4B765080558A5A9531
:1009D0005FA265B06AC06FD173E376F67819151A15
:1009E000151A161B161B171C171D181D181E191F6C
:1009F0001A201A211B211C221D231D241E261F27FD
:100A000020282129222B232C252E26302732293459
:100A10002B362C392E3B313E3341354538493B4D41
:100A20003E524258465E4A654F6C54755A80608B00
:100A300067986EA775B87BCB81DF85F5881615168C
:100A4000151716171618171817191819181A191B29
:100A50001A1B1A1C1B1D1C1E1D1F1E201E211F22BF
:100A600020232124232524272528262A282B292D25
:100A70002B2F2D322F3431373439363D39403C4419
:100A80004049444E48534D5A5261586A5F746780DA
:100A90006F8D789D81AF8AC493DB99F39D121513F6
:100AA00015131614161417141715181519161917E7
:100AB0001A171B181B191C191D1A1E1B1F1C201D81
:100AC000211E221F232024212522272328252A27EF
:100AD0002C282E2A302C322F353137343A373E3BF2
:100AE000423F46434A48504E56555D5D65676E72BB
:100AF0007880839090A39DBAA9D4B3F1B90F150F54
:100B000015101610161017111711181219121912A4
:100B10001A131B131B141C151D151E161F17201747
:100B200021182219231A241B261C271D291E2A20BE
:100B30002C212E23302433263529382B3B2E3F31D0
:100B4000433447384D3C52415948614F6A587562A9
:100B5000816F9080A094B3ADC6CBD7EDE20B150C9E
:100B6000150C160C160D170D180D180E190E190E62
:100B70001A0F1B0F1B101C101D101E111F1220120C
:100B800021132213231424152616271729182B198D
:100B90002C1A2F1B311C331E362039223C244026B0
:100BA0004429492C4E3055345C39653F6F477B50A2
:100BB0008A5C9D6BB380CE9AEEBEFFE8FF081508F5
:100BC00015081609160917091809180A190A190A21
:100BD0001A0A1B0B1B0B1C0B1D0C1E0C1F0C200DD3
:100BE000210D220E230E250F260F271029112B125F
:100BF0002D122F1331143415361739183D1A411B95
:100C0000451D4A20502257265E29682E7334813BA9
:100C10009345A952C665EE80FFA7FFDFFF051505C6
:100C200016051605160517051805180619061906DE
:100C30001A061B061C061C071D071E071F07200897
:100C4000210822082308250926092809290A2B0A30
:100C50002D0B2F0B310C340D370D3A0E3D0F41107B
:100C600046124B135115581760196A1C76208524BB
:100C7000992BB334D741FF58FF80FFCBFF011501FB
:100C8000160116011701170118011802190219029D
:100C90001A021B021C021C021D021E021F0220025D
:100CA00021022202230225032603280329032B0302
:100CB0002D032F033104340437043A043E05420562
:100CC00046064B065107580761086B09780A880CDD
:100CD0009D0EB912E217FF20FF34FF80FF00005085
:100CE00000A000F00001205120A120F1200240527C
:100CF00040A240F24003605360A360F3600480545C
:100D000080A480F48005A055A0A5A0F5A006C0563B
:100D1000C0A6C0F6C007E057E0A7E0F7E000045027
:100D200004A004F00401245124A124F1240244521B
:100D300044A244F24403645364A364F364048454FB
:100D400084A484F48405A455A4A5A4F5A406C456DB
:100D5000C4A6C4F6C407E457E4A7E4F7E4000950C6
:100D600009A009F00901295129A129F129024952B3
:100D700049A249F24903695369A369F36904895493
:100D800089A489F48905A955A9A5A9F5A906C95673
:100D9000C9A6C9F6C907E957E9A7E9F7E9000D505F
:100DA0000DA00DF00D012D512DA12DF12D024D5253
:100DB0004DA24DF24D036D536DA36DF36D048D5433
:100DC0008DA48DF48D05AD55ADA5ADF5AD06CD5613
:100DD000CDA6CDF6CD07ED57EDA7EDF7ED001250FE
:100DE00012A012F01201325132A132F132025252EB
:100DF00052A252F25203725372A372F372049254CB
:100E000092A492F49205B255B2A5B2F5B206D256AA
:100E1000D2A6D2F6D207F257F2A7F2F7F200165096
:100E200016A016F01601365136A136F1360256528A
:100E300056A256F25603765376A376F3760496546A
:100E400096A496F49605B655B6A5B6F5B606D6564A
:100E5000D6A6D6F6D607F657F6A7F6F7F6001B5035
:100E60001BA01BF01B013B513BA13BF13B025B5222
:100E70005BA25BF25B037B537BA37BF37B049B5402
:100E80009BA49BF49B05BB55BBA5BBF5BB06DB56E2
:100E9000DBA6DBF6DB07FB57FBA7FBF7FB001F50CE
:100EA0001FA01FF01F013F513FA13FF13F025F52C2
:100EB0005FA25FF25F037F537FA37FF37F049F54A2
:100EC0009FA49FF49F05BF55BFA5BFF5BF06DF5682
:100ED000DFA6DFF6DF07FF57FFA7FFF7FFE0E0E041
:100EE000E0E0E0E0E0E0E0E0E0E0E0E0E0E0E0E002
:100EF000E0E0E0E0E0E0E0E0E0E0E0E0E0E0E0FFD3
:100F0000FFFFFFFFFFFFFFFFFFFFFFE0E0E0E0FF6D
:100F1000FFFFFFFFFFFFFFFFFFFFFFE0E0E0E0FF5D
:100F2000FFFFFFFFFFFFFFFFFFFFFFE0E0E0E0FF4D
:100F3000FFFFFFFFFFFFFFFFFFFFFFE0E0E0E0FF3D
:100F4000FFFFFFFFFFFFFFFFFFFFFFE0E0E0E0FF2D
:100F5000FFFFFFFFFFFFFFFFFFFFFFE0E0E0E0FF1D
:100F6000FFFFFFFFFFFFFFFFFFFFFFE0E0E0E0FF0D
:100F7000FFFFFFFFFFFFFFFFFFFFFFE0E0E0E0FFFD
:100F8000FFFFFFFFFFFFFFFFFFFFFFE0E0E0E0FFED
:100F9000FFFFFFFFFFFFFFFFFFFFFFE0E0E0E0FFDD
:100FA000FFFFFFFFFFFFFFFFFFFFFFE0E0E0E0FFCD
:100FB000FFFFFFFFFFFFFFFFFFFFFFE0E0E0E0E0DC
:100FC000E0E0E0E0E0E0E0E0E0E0E0E0E0E0E0E021
:100FD000E0E0E0E0E0E0E0E0E0E0E0E0E0FFFFFFB4
:100FE000FFFFFFFFFFFFFFFFFFFFFFFFFFFFFFFF11
:100FF000FFFFFBF6F6F6F6FFFFFFFFFFFFFFFFFF29
:10100000FBF2E9E4E4E4E4E9F2FBFFFFFFFFFFFBAE
:10101000EDE4E0E0E0E0E0E0E4EDFBFFFFFFFFF205
:10102000E4E0E0E0E0E0E0E0E0E4F2FFFFFFFBE925
:10103000E0E0E0E0E0E0E0E0E0E0E9F6FFFFF6E439
:10104000E0E0E0E0E0E0E0E0E0E0E4F2FBFFD2E45A
:10105000E0E0E0E0E0E0E0E0E0E0E0E9F6DBD2E480
:10106000E0E0E0E0E0E0E0E0E0E0E0E9F6FFD6E448
:10107000E0E0E0E0E0E0E0E0E0E0E0E9F6FFF6E913
:10108000E0E0E0E0E0E0E0E0E0E0E4F2FFFFFFF2DB
:10109000E4E0E0E0E0E0E0E0E0E0E9FBFFFFFFFBB0
:1010A000EDE4E0E0E0E0E0E0E0E9F6FFFFFFFFFF75
:1010B000F6CDE9E4E0E0E0E4E9F6FFFFFFFFFFFF43
:1010C000FFFBF6F2E9E9E9F2FBFFFFFFFFFFFFFF9D
:1010D000FFFFDBDBD6D6D6DBFFFFFFFFFFFFFFFF07
:1010E000FF9292929292929292FFFFFFFFFFFFFF78
:1010F000921C1C1C1C1C1C1C1C92FFFFFFFFFFFFF2
:10110000921C1C1C1C1C1C1C1C92FFFFFFFFFFFFE1
:10111000921C1C1C1C1C1C1C1C92FFFFFFFFFFFFD1
:10112000921C1C1C1C1C1C1C1C92FFFFFFFFFFFFC1
:10113000921C1C1C1C1C1C1C1C92FFFFFFFFFFFFB1
:10114000921C1C1C1C1C1C1C1C92FFFFFFFF92927B
:10115000921C1C1C1C3C3C1C1C929292FF921C1C5E
:101160001C1C1C3C1C1C3C1C1C1C1C1C92FF921CB0
:101170001C3C3C3C3C1C3C1C1C1C1C92FFFFFF927A
:101180001C1C1C1C3C1C1C1C1C1C92FFFFFFFFFF9A
:10119000921C1C1C3C1C1C1C1C92FFFFFFFFFFFF31
:1011A000FF921C1C1C1C1C1C92FFFFFFFFFFFFFF7B
:1011B000FFFF921C1C1C1C92FFFFFFFFFFFFFFFFA5
:1011C000FFFFFF921C1C92FFFFFFFFFFFFFFFFFFCF
:1011D000FFFFFFFF9292FFFFFFFFFFFFFF000000F6
:1011E00000000000272600000000000000000000B2
:1011F00000000002030201000000000000000000E7
:1012000000000103030301000000000000000000D3
:1012100000000203030302000000010100000000BF
:1012200000010203030302010001020201000101A7
:101230000101020303030301000102020100020392
:10124000020102030303030200010203020102037D
:10125000020102030303030301010203030102036A
:101260000302030303030303020203030301020354
:101270000303030303030303030303030301030340
:10128000030303030303030303030303030303032E
:10129000030303030303030303030303030303031E
:1012A000030303030303030303030303030303030E
:1012B00003030303030303030303030303030303FE
:1012C00003030303030303030303030303070707E2
:1012D000070707070707070707070707070707079E
:1012E000070707070707070707070707070707078E
:1012F000070707070707070707070707070707077E
:10130000070707070707070707070707070707076D
:10131000070707070707070707070707070707075D
:10132000070707070707070707070707070707074D
:10133000070707070707070707070707070707073D
:101340000707070707070303070707070707070735
:10135000070707070703010102030707070307073A
:101360000707070303020100000103070701030742
:10137000070703010101000000010207070002073F
:101380000707020100000000000102020200010341
:10139000030201000000000000010202020000023E
:1013A0000201000000000000000001010200000135
:1013B0000201000000000000000000010200000027
:1013C000010000000000000000000000000000001C
:1013D00000000000000000000000000000FFFFFF10
:1013E000FFFFFFFFFBFBFFFFFFFFFFFFFFFFFFFF15
:1013F000FFDBDBBBBBBBBBDBFFFFFFFFFFFFFFFF79
:10140000B74B4B4B4A4A4B4B93FFFFFFFFFFFFB7D6
:101410004B030201010101024BB7FFFFFFFFDB4F4E
:101420000303010000000001024FDBFFFFFFB727AD
:101430000302000000000000012793FFFFBB6F03C1
:10144000020100000000000000024BB7FFB74B0391
:1014500001000000000000000001036FDBB74B0239
:1014600001000000000000000001036FDBB74B0328
:101470000100000000000000010227B7FFBB6F035E
:10148000020000000000000002036FDBFFFFB7272F
:101490000301000000000001034BB7FFFFFFDB6FFB
:1014A00027030201010102034BB7FFFFFFFFFFDB30
:1014B000934B27030203034BB7FFFFFFFFFFFFFF21
:1014C000FFB7934B2B274B93FFFFFFFFFFFFFFFF60
:1014D000FFFFFFDBDBDBFFFFFFFFFFFFFFFFFFFF88
:1014E000FFB6929292929292DBFFFFFFFFFFFFDB2B
:1014F00092929291B1B1919292B6FFFFFFFFBA9290
:1015000092B5FCFCFCFCFCD89192B6FFFFDF9292F6
:10151000D8FCFCFCFCFCFCFCFC9192BAFF9292B55E
:10152000FCFCD8FCFCFCFCD8FCD89291FF9291FC0E
:10153000FC9191D8FCFC9191D8FC9192DB92B1FC8A
:10154000D891B1B5FCD891B1B5FCB592B692B5FCC5
:10155000FCB5B5FCFCFCB5B5FCFCD892B692B5FC6C
:10156000FCFCFCFCFCFCFCFCFCFCB592B69291FC87
:10157000FCFCFCFCFCFCFCFCFCFCB192DA9292D87A
:10158000FCFCFCFCFCFCFCFCFCFC9291FFBB929183
:10159000FCFCFCFCFCFCFCFCFC9192B5FFFFB69251
:1015A00091D8FCFCFCFCFCFC919291FEFFFFFF92A9
:1015B0009292B1B5D8B5B5929291FEFFFFFFFFFFB1
:1015C000B691929292929291B5FEFFFFFFFFFFFFBC
:1015D000FFFFDAB6B2B6D9FFFFFFFFFFFFFFFFFF45
:1015E000FFFFFFFFDBDBFFFFFFFFFFFFFFFFFFFF53
:1015F000FFDB929292929292B6FFFFFFFFFFFFFFF6
:1016000092929292969692929292DFFFFFFFFF92B1
:101610009292BBDBFFFFDFBB929292FFFFFFDB9258
:1016200092DF9292DBDF9292DB9292DBFFFFDB9202
:10163000B6DB9296B6DB9296B6BB92B6FFFFDB9214
:1016400092FFB6B6FFFFB6B6FFB692BAFFFFFF92A3
:1016500092B6FFFFFFFFFFFFBA9292DFFFFFFFDBB3
:10166000929292B6DBDBB6929292DBFFFFFFFFFF16
:10167000DF9692929292929292DBFFFFFFFFFFFF22
:10168000FFDB929292929292B6FFFFFFFFFFFFFF65
:10169000DF9292929696929292BBFFFFFFFFFFFF1E
:1016A000DB9292B6DBDBB69292B6FFFFFFFFFFFF45
:1016B000FF9692929292929292FFFFFFFFFFFFFF9E
:1016C000FFFFFFFFFFFFFFFFFFFFFFFFFFFFFFFF2A
:1016D000FFFFFFFFFFFFFFFFFFFFFFFFFF01000016
:1016E00000000000000001000000000000000001F8
:1016F00000000000000000000100000000000000E9
:1017000000010000000000000000010000000000D7
:1017100000000001000000000000000001010000C6
:1017200000000000000201000000000001020201B0
:101730000000000102020202010001020202020294
:10174000020102020202020202020202020202027A
:101750000202020202030303030303030300000067
:101760000000000000000000000000000000000079
:10177000000000000000000000000000000404045D
:10178000040404040405050505050505050000001D
:101790000000000000000000000000000000000049
:1017A0000700000000000800000007000000000023
:1017B000000000000000070000080000000000001A
:1017C00000000000070000070000080000080000FB
:1017D0000000000000000000000800000064969671
:1017E0008A8A8A7575757564646475757575758A88
:1017F0008A8A969696A2A2B0B7B7B7C48A96CDCD7C
:10180000CDB7B0B0A296969696A2B0B0B0B0CDCDFE
:10181000CDD7D7D7E1E1EDF0F3F5F5FAC496CD9643
:10182000B7B7B0A296A275A2A2B0B0B0B0A2CD26B2
:10183000D7D7D796E7EDF3F3F5F796FAC48AB7B0A2
:10184000B0968A75758A8A9696A2B0B7B7C4CD2627
:1018500099E1E7EDE7EDF3F3F5F7FAFAC475B0B007
:10186000B7A29696A2A2B0B0B7C4CDCDCDC4D726AC
:101870009AE7EDF3F3F5F7FAFAF5FAF7C475A296DD
:10188000A29696A2B0B0B0B7C4CDCDCDD7C4DC2659
:101890003EEDF0F5F5F7FAFAFAF5F5F3B76496963A
:1018A000B0A2A2B0B0B0CDCDCDCDD7D7DCD7ED268C
:1018B0001CF3F3FAFAFAFAFAF7F0F3F3B064969637
:1018C000B0A2B0B0B7B7CDCDCDD7D7DCE1DCED2637
:1018D000B1F5F7FBFAFAFAF5F5EDF0EDA264A29690
:1018E000C4B0B0B0CDCDCDCDD7D7DCE1EDE7F32698
:1018F000B8FAFAFBFAF7F3F3F0E7D7E1A264A28AA9
:10190000C4B0B7B7CDCDCDD7D7DCE1E7F0EDF32646
:10191000B9FAFAFBFAF5F3F3F0E1B7DC9675B0B07B
:10192000C4CDCDCDCDD7D7DCE1EDF0F3F3F0FA2681
:10193000BAFAF7FAF3F0F0E7E1CDD7D78A75B0B786
:10194000D7CDCDCDD7D7E1E7EDF0F3F5F7F5FA2612
:10195000BAF5F3F5F3EDE1DCD7C4CDCD8A8AB7CD86
:10196000D7CDD7D7DCE1E7F0F0F5F5F7FAF5FA26B1
:10197000B9F5F3F5F0E7DCDCD7B7CDCD8A8ACDCD6C
:10198000DCD7DCDCE7EDF0F3F5F7F7FAFAF5F7264C
:10199000B1F3EDF0E1D7D7CDCDB7B7B0758ACDD7DC
:1019A000E1DCE1E1EDF0F3F5F7FAFAFAFAF3F52606
:1019B000A4F0E7EDDCD7CDCDCDB7B7B07596D7A203
:1019C000E1E1E7EDF0F3F5F7FAFAFAFAF5F0F326CC
:1019D00001E7DCE1D7CDCDCDB79696A27596D7E1DC
:1019E000F0EDF3F3F5F7FAFAFAFAF7F5F5EDF0267C
:1019F00066DCD7E1CDCDCDB0B08AA29664A2E1E796
:101A0000F0F0F3F3F7F7FAFAFAFAF5F3F3E1E72671
:101A10008DD7CDD7CDB7B0B0A28A969664A2E7F0A5
:101A2000F5F5F7FAFAFAFAF7F5F3F0EDE7D7DC2671
:101A30008CCDC4CDB0B0B0A29675969675B0F0F3CB
:101A4000F7F5F7FAFAFAF7F5F3F0EDE7DCCDD7267C
:101A50007ACDB7C4B0A296969675A2A275B7F3F5E3
:101A6000FBFAFAFAFAF5F5F3F0E7E1E1D7C4CD268F
:101A700078B7B0B7A2969696968AA2B075C4F5F7D5
:101A8000FBFAFAF7F5F3F3EDE7E1D7D7CDB7CD26BB
:101A900068B0A2B0969696A2A296B0B075C4F7961A
:101AA000FBFAF7F5F3F0F0E7E1DCD7D7CDB7C426C2
:101AB00068B0A2A2969696A2A29696B78AC4FAFA9F
:101AC000FBF7F5F3EDE7E1D7D7D7CDCDCD96B0262F
:101AD000679696A296A2A2B0B096CDCD8AC4F7F72B
:101AE000F7F3F0F0E7E1E1D7D7CDCDC4B796B02654
:101AF000539696B0A2B0B0B0B0B7CDCD96C4F7F5BE
:101B0000F7F3EDE1DCD7CDCDCDB7B0B0B08A9626F6
:101B10000196A2B7B0B0B0B7CDB7CDD796C4F3F3A6
:101B2000F3E7E1DCD7CDCDCDCDB0B0B0A28A96261B
:101B30003EA2B0C4B7B7CDCDCDB7D7DCA2B7F0F0D9
:101B4000F0E1DCD7CDCDC4B7B0B0A296967596269D
:101B500068B0B0CDC4CDCDCDD7C4DCE1A2B0EDE747
:101B6000E1E1E1DCD7CDCDC4B7B0A2A2A2A2A2260A
:101B700068B0B7D7D7D7DCE1E1E1E1E7B0B0E196F3
:101B8000D7D7CDCDB7B796B0A2969696B08AB026E5
:101B9000B0CDCD96CDD7D7DCE1ED96F3C4A2D7D7A3
:101BA000CDCDCDB7B0B0A296969696A2A2B0B0B762
:101BB000B7CDCDCDD7D7DCE1E1EDF0F3C475A2B060
:101BC000A2A2A29696968A8A8A8A8A96969696A2C1
:101BD000A2A2A2B0B0B0B0B7B7C4CDCD964E397105
:101BE0007170636261616060606061627071727186
:101BF000706361604D4A4A4B4C4B4D4B384C3872C8
:101C0000858585858585857272717171717283850F
:101C1000858585724D3A384D4D604E614B4E172487
:101C20002424242424242424242424242424242474
:101C3000242424244E4B36384B4B394C4B4E3660C3
:101C400063717272716260606060616371717272FF
:101C500071716261614D36394B4C4B4C4C4D366362
:101C600071727272636160606060616371727272DE
:101C7000727163614B4B36384C4C4B4B4B4B36605F
:101C800061637071727170626160606060616162F5
:101C9000637071714C4B36393939394B4B4B386362
:101CA0006260606060616263636363636363626216
:101CB000626262624E4C3536363637364A4D254CB6
:101CC0004C4C4C4C4C4C4C4C4C4C4C4C4C4C4C4C54
:101CD0004C4C4C4C60614B4B4B4A3A3A384B35605C
:101CE00060606060606060606060606060606060F4
:101CF00060606060614D604D4C4B4B4C384B3660C2
:101D000060606060606060606060606060606060D3
:101D1000606060604C4B394C4B4B4B4E4B603870A5
:101D20007071717070706363636363636363636333
:101D3000636363634C4B353839394B4C4B4B3661DD
:101D40006160606061616263707071717171707007
:101D5000636363634D4B363939384A4C4B4D244CE1
:101D60004C4C4C4C4C4C4C4C4C4C4C4C4C4C4C4CB3
:101D70004C4C4C4C4B4A35383838384B4B4D244C36
:101D80004D4E606060604D4C4C4B4B4C4D4D606017
:101D9000606060604D3A36383939383A4A4B3660BF
:101DA00061616263707071727170706362626161AF
:101DB000616263634C4B243536373636394D3870A3
:101DC00070636261616160606161626363636363E8
:101DD000636363634E4B3837384B3A3A384C36615D
:101DE00061626363636363636363636363636363C6
:101DF000636363634D39384C4E4C4B4B384C3871F0
:101E000071717171717171717171717171717171C2
:101E1000717171714C4C384C4E4D4B4B4B4D1724DE
:101E20002424242424242424242424242424242472
:101E3000242424244D4B384B3A394B4D4C4B3661BE
:101E4000616161626363707171717170706261610F
:101E5000606161634E4B384B394A4B4B4A4E386395
:101E60006363636261606060616263636363636252
:101E700061616060604B364B4B4B4C604C4B366342
:101E80006363636363636363636363636363636322
:101E9000636261614D4B364A394B4D4C4B4C386354
:101EA0006363636363636363626161606061616113
:101EB000626370704C4A3538383836363A62254C91
:101EC0004C4C4C4C4C4C4C4C4C4C4C4C4C4C4C4C52
:101ED0004C4C4C4C4E604B4B3A4B4B4B3A62356042
:101EE0006060606060604D4D4C4C4B4B4C4D606091
:101EF00060604E4D624E4B4B4B4D606039603872A6
:101F00007171636363626261616163707172727146
:101F1000716363614D4B394D4E6270614B60386344
:101F2000636363707071717171707063626161601D
:101F3000606061614B3935384C4D4E604D4D3863B2
:101F4000636363636363636363636363637070703A
:101F5000717170704D4B36394B4D4B4C4D4C387147
:101F60007171717171717171717171717171717161
:101F7000717171714D4B36383938384B4B4B2124C8
:101F80002424242424242424242424242424242411
:101F9000242424244C4A364B4B4A394C4B6036623D
:101FA00062626262626262626262626263636371FF
:101FB00071636363604B3538383837364C6336624B
:101FC00062626262626363636363636362616060EF
:101FD00060606263604E4B4B4B4B4B4B3A2F2F2F45
:101FE0002F53325343643F324242513F3F3F674297
:101FF00042535342534243557555427553523341F0
:1020000032332468354337555533435B55224638C0
:1020100046333643445343677C53455553403778E2
:102020003F2F5538406424373F2638383622556ACA
:1020300055257867573E4335333E6A5A75642B13EE
:1020400001101C101C1010010101041110101111BD
:10205000011010102B141114051E362B552F5B1672
:102060003C3E323F6450503C3C2B21212E223D22ED
:102070002F32325032353542528A7B4A423246152F
:102080003C3E6435646450645050313E3D22322100
:10209000243F335031233F3546968F6A43335E1FCA
:1020A0003C50523542646464503E5050503E50247F
:1020B0002424233232242437374D8F3742532B1FA9
:1020C0003C64323F64644264505050503E243F3E72
:1020D0003224232434243535354B4B2B3F43433EA8
:1020E0003C64643E32515050505050503E3E3E5041
:1020F0002464334275533535437C6D5B4243693C00
:102100002F64506450335064646464505050505194
:102110005264647575423735527B6D47535396222E
:102120003C647564505064506464646450506464EA
:102130006464757575533764643A5F6A53322B2251
:1021400050689696758A8A7856968A8A968A968A6A
:102150009696A296968A6A8A967C8D2B55644355EC
:102160006768967A8F798C967B7B7B9BA39A7B9A08
:10217000A27C8F7C8FA296B0B09B593542423837F3
:10218000322E3526522E553432216C6A4221344388
:1021900032215A79532E3526521F6A36421E3C216F
:1021A00012122C15151D2B1E151516213F152F2F3C
:1021B0001F2216161F3C3C3C1F161E162B01010148
:1021C00001010101010101010101010101010101FF
:1021D00001010101010101010101010101010101EF
:1021E00001010101010101010101010101010101DF
:1021F000010101010101010101010101011212139B
:102200001315133C1516151F2E151E16151315152F
:1022100016151515172E1F2B212E2C2C1E52367518
:10222000521F4636333C35423222375B53215538F4
:1022300042225542423C3542683C4646756842312E
:10224000131E2E152E3C13161E15161617151F3CA1
:102250002F151F3C532C1F22152E4653683D3F154A
:102260001C2E2F3C503C3C12101C15202B202020F3
:102270001C202E3C2E23222321525A22422F381575
:102280003C3E3F33646450503C3C2F322F2232227C
:10229000243E335023243453538A8F384232462EFF
:1022A0003C50643553646464503E3D5050323E238C
:1022B0002424243F3E233337387C8D6A423368150B
:1022C0003C64333442645264505050503E323E328B
:1022D0002424233224243535354C6D324153212FAB
:1022E0003C6452323F64516450505050503232502E
:1022F000333F243453423535354C4C234243533C11
:102300002F5064503E335050505050503E50503F2C
:10231000426452537555353742968F56523F792F46
:102320003C6464646452506464646464505050500B
:102330005264757575423742644A6D496833752237
:102340003C648A7564646452527564646464756440
:1023500075758A7575753775754B8E53553F1F5555
:102360008A8DB0B7B0A296A29AB0B0B0B7A2B0B002
:10237000B7B0B7B0B0B0A2B0B7B07B2E555245439E
:10238000322153235552553F343537565556436AFB
:1023900067365A56465253558A3546373F426A3950
:1023A000202E45363321684233246C6B5A23454630
:1023B0003F26375B5364556A4224553553503F3EA0
:1023C0002F2F5031423F52503F42424353684268A0
:1023D00075564343437564757555424252DFAEAE40
:1023E000AEA08643474744352FCCC1AEAEAEAE86D5
:1023F0004B32474443352E86AEAEAEA162E5AEAE5B
:10240000AE937132A08686714790C1AEAEAE914D4B
:10241000327286858560339FB6AEAEA162F6C2AEDB
:10242000AE935D6FAE9393916240C2A1A191434B75
:102430008591939392854B58D4AFAEAE71D0E4F2B0
:10244000D5AE43A0A093939371356E5B442F71A0DA
:102450009393939393866232322B435C5843322B8F
:10246000446D57AE93939393854A475C60489CDFD5
:10247000939393939386604485614C4A35AC857100
:102480004D4BB2AF93939393864493A091632FEAFD
:10249000AE93939393854485A091858560ECAEA01F
:1024A0008662BCD5AFAFAFAE9144AEAEA0864D7DD7
:1024B000ECAEA09392722EAEA093939162ECAEAE6E
:1024C00091626DB49F9F9F9F7140E5AEAE93723352
:1024D000A9D3DFC1AE6258AF9393939162ECAEAED5
:1024E00091624047444444443535F2AEAEA0864B39
:1024F0003F322E325840BDC19393939162ECAEAE01
:1025000093638093858585856032F2D5AEAE914721
:102510006F72634D4A358DF2AE93939162F6C2D5D8
:10252000AF71BCAE9393939171379BEBECB686354C
:10253000A09391858560368DF2AE939371BC7E44F5
:102540002B2B9CDF939393918530332E7DDAA03231
:10255000C1939393928560368DEEAFA16F3233387D
:1025600039372EDFA09392854A436039352E446D6A
:10257000D5A09393939286614754442B2E724C4D71
:102580004E3A32D0C19391632F7171604B38352F21
:10259000E9E5AEA093939385372F34373793626084
:1025A000604B3744E59272326071717163604A37F3
:1025B0002EA8DBE5C1B6A0402F39394A37A06260AA
:1025C000604E3832BF854333937171717171604AC7
:1025D000372E33332E332F434D4A4A4A37A0626099
:1025E00060604B3543447143A08571717171624BDA
:1025F0002F8186858572476DA04B4A4A37A063625A
:102600007171602F5CA091616DA0717171634D3526
:1026100057AFAEAEAE93712FAE714A4A37AE7272FB
:1026200061583281A0AEA07233AE937271623A2EBD
:10263000A0AEAEAEAEAE864B5CA04D4B387F432B0A
:10264000324833D5AFAEAE91602F7E9193632F9019
:10265000AFAEAEAEAEAEA0724393864E3344606F63
:1026600072714ACFDFAEAE91474B35322F336CE5F6
:10267000B6AEAEAEAEAEAE916F2B2B3233AD86861C
:1026800091856048F2AEA0824086624D4A353FDEB9
:10269000F8D5AFAEAEAEAE913F606F624BD59392C0
:1026A00093866333EBD5AE5B869185857262382F56
:1026B0009BF1ECE5E5D5A0406F91868660DF9393B2
:1026C0009391723A989C4343DF9386868685714B3B
:1026D000372B353333332E90A193938660DF93935A
:1026E0009391854E324B4C2FD1C19186868686724E
:1026F00033476362624D359CE593938660DF939325
:10270000939172436F86724B2FE4C1AFAFAE934A81
:102710004085858585724B2EE4AE938660F2AEA12E
:10272000A1936F32A19391703A325B58585843325B
:1027300093918686868562366CDF939371CA9F86F5
:1027400086844484A09393864E2E86717063612F95
:10275000D59386868686854D32D2AE93625C5C5B6D
:102760005B5832DBA19393866233D5A0A0A085434A
:10277000BEC08686868685634B2B2F3835D5AEA1A5
:10278000A1915CC9C19393854C6DE5AFAEAEA063DA
:102790003FEC9386868685632F82938662F2B6AE7F
:1027A000AEA17258F2AEA191489ED5AEAEAEAE8645
:1027B00043D0C1A0939386437E93A1A063E5AEAEC0
:1027C000AEAE9343BE9F9F8444ABC2AEAEAEAEA04E
:1027D0007143BE868673466093AEAEA163E1624EDE
:1027E0004B7B7C399EE3BC4B35386139CFBC61856E
:1027F0004D4A8F8F363539A6E14E6363B3E74C4DB2
:10280000388FB7E1F5F5C94B37394B72CFA67171E7
:102810004B38B97B366B9BE2E138603ACFE74D4BE2
:10282000388FD7F5F7F5CF38384B634BCFA66271A9
:102830007138CDCED8F0F3F5E14B4C4BBCE73838CE
:10284000396ACDF3F0F3DC4D396F614CCF9B4E62AA
:102850006039DCF0F7F7F3F0DC4E4E4EC9E1606012
:102860004D68A3382443D7604C606261D09B624BB3
:102870003835DCF0A536357DE74D6060CAE74B6141
:102880004D6A9B363535B763604D6372CFA54E6197
:102890006035E7BB3535357DF0636160BCED4C4C90
:1028A0004D7BA64E3835DC4C3963714ECABB724D38
:1028B000724DEDA5363536A6ED4C6162E2F34B6004
:1028C0004B6AA64B6138DC614B4A4B4BD0BC6F6303
:1028D0006260F0A54B3839BCF3624E60EDED394DC6
:1028E0004D6AA661629DE14E4B4A7261D0BC706137
:1028F0006138DC9B4E9171C9F372724DF0C439613D
:10290000607CA672619BF04E38606163D0BC6362EC
:102910004D38E1A6627171D0F562624CF5DC4D6014
:10292000619BC98572B2ED4B4A39624DCFBC4D7087
:102930004A4BF59B626372C9F560604BF5E14C63ED
:10294000609BBC63629BED614B39614BC9BC6062AB
:102950004B60F7A5717263C9F59E7260F0ED62631A
:102960004B9BCA7271BCE74C3638634CBCF5E89E91
:10297000607EF79B617285C9F5A67262D9ED604DE4
:10298000629BBC6071A6E14A606F8662D0F5DCF59F
:10299000F7FAF7A6617272CFF7BC7072CFE7616089
:1029A0004C8FB3614B7CF0606F864A4BD0F0F0F5F2
:1029B000F0F0F39B717263B2F7BC6063D0E7614ED5
:1029C000389BBC4D4B8FE1704B38384DD0DD394BC7
:1029D0004B4BA68F628572B2F7CABCCAF0ED61712B
:1029E000399BB34E4CB2F04E38364A86D9BC4B4B6D
:1029F0004A4BA5A66F72639DF7F3F7F5DCE1624ED3
:102A00004D9BB3624D9BE7383A718585D0A54B4A03
:102A10004D4B9B9B636F72A6F7C77DE1E7E1614C6D
:102A200036BBB34B4A9BDC6D4A727263D0A6393910
:102A30004B4CBCA54E7263A6F5A3399BE7C4383551
:102A400038DCBC4B4B9BDC9B4C868560CFA6393970
:102A5000364BC9A6717162A6F3614D7EF0E78F9B7C
:102A6000B8F09B38389BE7DDA94B385AF3A6394AB2
:102A70003938A6A64B6063B2E14B4D4CF0EDF0E166
:102A8000EDF0A66171BCF3EDF5F0E7F7F58F4A4A7A
:102A90004B60B3BC61634BA3F04C714EF5F0A89E44
:102AA000BCE19B6361A6F3F3F0F0F7F5ED9B4A39C7
:102AB0006F86C9E3C9BC9BC6F04E714EF3C9614C29
:102AC0004AC48F614AA6F0E3D0D0A6E8EDA64A3901
:102AD0008686C9F3F7FAFAFAF34E634EF3A6386323
:102AE0004DE79B4A4BBCF0634C4E6371CA9B4A71E5
:102AF000A091C9F5EDE7F0F5ED4B6063F0B27262BD
:102B00004CCD9B604CBCB34B3A634E4DA69B5F854E
:102B10008583BCED3636367DF062624DE79D634DB0
:102B20004DD79B7160BCC938384B4B4C9B6B628551
:102B30008660A6E74D634B4AED627161EDA6637056
:102B40004BDC8F7070A6B23635634B4D8F7B63853F
:102B50008662BCCF62707062D74B624DF0B3727206
:102B600060D79B7162A6A6354B4B614C9A7C727202
:102B70006261C9BC6086634BE74A7062E79B716320
:102B80004CDC9B724AA69B384B626F4BA6B2857297
:102B9000634ECFBC6171609CE14D7262F5A66272BA
:102BA00060CD9B634B8FB2624E604C4CA6C9727174
:102BB0004D4BBB9B4B6038A6E14E7263F5B2717111
:102BC0004AB79B604AA6A64B4C72854BA6B3716070
:102BD0003A4AA68F4A38399ADC717063F00E0A0EB1
:102BE000E1E1E1E1E1E1E1E1E1E1950E0C0A95E1EC
:102BF000E1E1E1E1E1E1E1E1950E0C0A950E0A2B3C
:102C00002B2B2B2B2B2B2B2B2B2B2B1A0C182B2F53
:102C10002F2F2F2F2F2F2F2F2F1A0C27960E0A2BE7
:102C20002B2B2B2B2B2B2B483838381B0C182B63BA
:102C3000636363636163636363290C27960E0A2BE6
:102C40002B2B2B2B2B2B2B63627171290C182B4DEB
:102C50004D4D4D4D4E4D4D4D4D290C27960E0A2B89
:102C60002B2B2B2B2B2B2B63374E4E1B0C182B6334
:102C7000636363636163636363290C27960E0A2BA6
:102C80002B2B2B2B2B2B2B633560601B0C182B63F2
:102C9000636363636163636363290C27960E0A2B86
:102CA0002B2B2B2B2B2B2BCFD74C601B0C182B4DEE
:102CB0004D4D4D4D4E4D4D4D4D290C27960E0A2B29
:102CC0002B2B2B2B2B2B2B633760601B0C182B63B0
:102CD000636363636163636363290C27960E0A2B46
:102CE0002B2B2B2B2B2B2B633760601B0C182B23D0
:102CF00023232323222F2F2F2F1A0C27960E0A2B44
:102D00002B2B2B2B2B2B2B633560601B0C182B24B0
:102D1000242424244863636363290C27960E0A2B1A
:102D20002B2B2B2B2B2B2BCFD74C601B0C182B3585
:102D300035353535384D4D4D4D290C27960E0A2B1E
:102D40002B2B2B2B2B2B2B633760601B0C182B355D
:102D5000353535354863636363290C27960E0A2B96
:102D60002B2B2B2B2B2B2B63363A3A1B0C182B358A
:102D7000353535354863636363290C27960E0A2B76
:102D80002B2B2B2B2B2B2B63627171290C182B24D3
:102D900024242424384D4D4D4D290C27960E0A2B02
:102DA0002B2B2B2B2B2B2B46445858280C182B2F16
:102DB0002F2F2F2F4763636363290C27960E0A2B4F
:102DC0002B2B2B2B2B2B2B2B2B2B2B1A0C182B2B96
:102DD0002B2B2B2B2B2B2B2B2B1A0C27960E0A2B4A
:102DE0002B2B2B3338484848484838290C182B2BB4
:102DF0002B2B2B2C2F2F2F2F2F1A0C27960E0A2B15
:102E00002B2B2B574D7171717171622A0C182B2B62
:102E10002B2B2B190B0D0D0D0D0F0C27960E0A2BBE
:102E20002B2B2B574A62716262634C2A0C182B2B96
:102E30002B2B2B19080B080D0B1A0C27960E0A2B9F
:102E40002B2B2B573971717171724C2A0C182B2B4B
:102E50002B2B2B19080B080D0D1A0C27960E0A2B7D
:102E60002B2B2B573872726F71864C2A0C182B2B18
:102E70002B2B2B19AA3B080D0D1A0C27960E0A2B8B
:102E80002B2B2B573872857162854C2A0C182B2BF3
:102E90002B2B2B19B53B080D0D1A0C27960E0A2B60
:102EA0002B2B2B574872866F63625F2A0C182B2BD3
:102EB0002B2B2B19080B080D0D1A0C27960E0A2B1D
:102EC0002B2B2B574872866F4C635F2A0C182B2BC9
:102ED0002B2B2B19080B080D0D1A0C27960E0A2BFD
:102EE0002B2B2B573863726F4B634C2A0C182B2BF0
:102EF0002B2B2B19080B080D0D1A0C27960E0A2BDD
:102F00002B2B2B57397171714E714C2A0C182B2BAE
:102F10002B2B2B19AA3B080D0D1A0C278A0E0A2BF6
:102F20002B2B2B574863707172625F2A0C182B2B66
:102F30002B2B2B19B53B080D0D1A0C27750E0A2BE0
:102F40002B2B2B574A606162634E4C2A0C182B2B9B
:102F50002B2B2B19080B080D0D1A0C27750E0A2B9D
:102F60002B2B2B574B3839484B384B2A0C182B2B13
:102F70002B2B2B190808070808090C27640E0A2BAD
:102F80002B2B2B574D6363636363632A0C182B2B26
:102F90002B2B2B190B0D0D0D0D0F0C27640E0A108A
:102FA0001010101010101010101010060C18101027
:102FB000101010101010101010060C27640A0A0AC6
:102FC000CDCDCDCDCDCDCDCDCDCD870A0C0A87CD04
:102FD000CDCDCDCDCDCDCDCD870A0C0A87C3F4F4B0
:102FE000E0E0D6E0E6E0E6E0E6EFEFEFEFE6E0E097
:102FF000E0F4EFF43C505050505050503CD6F4F4B4
:10300000E0E0E0E6E6E0E0E6E6E6EFEFEFE6E6E069
:10301000E0F9EFEF3C758A969696A28A3CC3F4F4E9
:10302000E0E6E6E6E6E6E6E6E0E6E6EFEFEFE6E037
:10303000E6F4F4EF3C8A8A8A96C4C4963CC3F4F45E
:10304000E0EFEFEFEFEFE6E0E0E0E6EFF4EFE6E0F1
:10305000E6F9F4F43C96A2B7B7CDCD963CC3EFF9B0
:10306000E0EFEFEFEFE6E0E0E6E6E6EFF4EFE6E6CE
:10307000E6F9F4EF3C96C4C4B7B7B7963CC3EFF992
:10308000E0E6EFEFE6E6E6E6E6E0E6EFEFEFEFE6B6
:10309000E0F9F4EF3C96C4CDA2A2B0753CC3F4F9BC
:1030A000D6E0E6E6EFE6E0E0E6E6E6E6EFF4EFE6B9
:1030B000E0F9F4F43C96B0B0B0B0A2753CC3F4F9BA
:1030C000D6E0E6EFEFEFE6E6E6EFE6E6E6EFEFE086
:1030D000E0F9F4F43C96A2B7B7B0B78A3CC3F4F970
:1030E000D6E0E0E6EFEFEFE6E6EFEFE6E6E6E6E66F
:1030F000E0F9EFEF3C9696A2B0B0A2753CC3F4F9AC
:10310000D6E0E0E6E6EFE6E0E6E6E6E6E0E6EFE675
:10311000E0F9EFF43C96B0A2B0B0A2643CC3F4F97D
:10312000D6E0E0E6E6E6E6E0E6E6E6E0E0E6EFEF5B
:10313000E6F9F4F43C96B096A2968A643CC3F4F99E
:10314000D6E6E6E6E6E6E6E0E0D6E0E0E6EFEFEF3C
:10315000EFF9F4F43C969696968AB08A3CC3EFF960
:10316000D6E6E6E0E0E0E0E0D6D6E0E6E6E6EFEF41
:10317000EFF4F4EF3C96B0C4B0B0B08A3CC3F4F4C2
:10318000E0E6E0E0E0E0E0E0E0E0E0E6E0E6EFEF0F
:10319000EFF4EFF43C96CDC4C4CDCD963CD6F4F418
:1031A000D6E0E0E6E0E0E0E6E0E0E0E0E6E0E6E60B
:1031B000E6F4EFEF3C8AC4C4C4D7D7A23CC3F4F40E
:1031C000D6E0E0E6E6E6E6E6E0E0E0E0E0E0E0E0EB
:1031D000E6F9F4EF3C646464646464643CC3F4F949
:1031E000D6E0E6E6E6E6E6E6E6E0E0E0E0E0E0E0BF
:1031F000E0F4F4F43C505050505050503CC3EFF4C5
:10320000D6E6E6E6E6E6E6E6E6E6E0E0E0E6E6E086
:10321000E0F4F4F43C758A8A9696968A3CC3EFF4FF
:10322000D6E0E0E0E6E6EFEFEFEFE0E0E0E6E6E64E
:10323000E6F4F4F43C8AA2969696968A3CC3F4F49B
:10324000D6E0E0E0E6EFEFEFEFEFE6E6E6E6E6EF0A
:10325000EFF9EFEF3C96B0A2B0B0B78A3CD6F4F9E4
:10326000D6E0E0E6E6EFEFEFEFEFEFE6E6EFEFEFC9
:10327000E6F9F4EF3C96B0A2B7B7B7963CC3F4F9C1
:10328000D6E6E0E0E0E6EFEFEFEFEFE6EFEFEFEFAF
:10329000EFF9F4EF3C96B7B7B7A2B08A3CC3EFF9A9
:1032A000E0E6E0E0E6E6E6F4EFEFE6E6EFEFEFEF8C
:1032B000EFF9F4EF3C96CDB0B7B0B08A3CC3EFF96C
:1032C000E0E6E0E6E6E0E6EFEFEFE6E6E6EFEFE683
:1032D000E6F9F4EF3C96CDC4B7B096643CC3F4F97C
:1032E000D6E0E0E6E6E6E6EFF4EFE6E6E6EFE6E077
:1032F000E6F9F4F43C96B7B0B0B0B0753CC3F4F95D
:10330000D6E6E0E0E6EFEFEFF4EFE6E6E6E6E6E04D
:10331000E6F9F4F43C969696A2B0B0753CC3F4F985
:10332000D6E0E0E0E6E6EFEFEFEFEFE6E0E0E6E63E
:10333000E6F9EFF43C96B7B0B0A2B0753CC3F4F92F
:10334000D6E6E6E0E0E6EFEFEFF4EFE6E0E6E6E60D
:10335000E0F9EFEF3C96CDB7B0A2A28A3CC3F4F9F6
:10336000E0EFE6E6E0E6E6EFEFF4EFE6E0E0E6E0E9
:10337000D6F4F4F43C96B7B7CDCDCD963CC3F4F477
:10338000E0E6E6E6E0E0E6EFEFEFE6E6E6E0E0E0E6
:10339000E0F4F4F43C96B7C4D7D7C4963CC3EFF935
:1033A000D6E6E6E6E0E0E0E6EFEFEFE6E6D6E0E0E0
:1033B000E0F4F4F43C8ACDC4C4C4C4A23CC3EFF42A
:1033C000D6E0E6E0E0E0E0E6EFEFEFE6E6E6E0E0BC
:1033D000E6F4F4EF3C646464646464643C96B7B7F8
:1033E000B0B0B0B0B0A2A2A2B0B0B7B7B7C4C4C4B6
:1033F000C4CDCDCDD7D7DCDCE1E1E7E7B7B7DCC49E
:10340000D7CDCDB7B7C4C4D7C4D7DCE1DCCDE1E7B5
:10341000EDE1DCF3F7FAC4FCFCFCF3EDE1B0D7D747
:10342000CDC4B7B7B7CDCDD7D7D7DCE1E1E1E7ED74
:10343000EDF3F3F5FAFBFCFCFCFCFCFCDCB0D7CDB7
:10344000CDB7B7C4CDCDD7D7DCE1E1E1E7EDEDF005
:10345000F3F7F7FAFCFCFCFCFCFCFCFCDCA2C4C4AB
:10346000B7B7C4CDCDD7D7DCE1E1E7E7EDF0F0F5B4
:10347000F5FAFBFBFCFCFCFCFCFCFBFACDA2CDB797
:10348000C4C4CDD7D7DCB7DCEDEDF0F0F0F0F0F34D
:10349000F5F5F5FDFCFCF3FCFCFBF7F0CD96B7B7BA
:1034A000CDCDD7C4DCE1E1B0B7D7D7DCDCE1E1E7D3
:1034B000EDEDFCFDFCFCE7FBFAF7EDE1C4A2CDCDA0
:1034C000D7D7DCE1E1E1E7EDB0C4DCE1E1E1E7ED34
:1034D000EDFCFDFCFCFCFCFAF7F5F3EDC4A2CDD746
:1034E000D7C4F3E1E1EDEDEDF0B7CDE1E7EDEDF3BC
:1034F000FDFDFCFCFBFAF7D7F3F0EDEDB7B0D7DC40
:10350000E1C4C4F7EDEDF0F3F5F7C4DCEDEDF0FD4B
:10351000FDFCFCFBFAF7C4E1F0EDE7E7B7B0DCDC5B
:10352000E1C4A2E7F7F0F3F5F7FAFCC4DCF3FDFD24
:10353000FCFCFBFAF7B7F5F5F0E7E7DCB0B7DCD752
:10354000E1C4B0D7E7FAF5F7FBFCFCFCC4FDFDFCD9
:10355000FBFBFAF5B7F5FCF5EDE1D7CDB0B7E1E14E
:10356000E7CDB0E1E1F0FCFAFCFAF7FCFCFCFCED85
:10357000FAF7F5B7F5FCFBF3EDE1D7D7A2B7E7ED26
:10358000EDCDB0E1E1E1F3FDFCF7F5FCFCFCFBE186
:10359000F7F5B7F5FCFAFAF0E7DCD7CDA2C4EDF009
:1035A000F0D7B7E1E7EDEDF7FDFCFCFBFBFAF5F337
:1035B000F0B7F5FCFBFAF7F0E1CDC4B796C4F0E73D
:1035C000F5D7B7E7EDF0F0F3FBFDFCFBFAFAF5F306
:1035D000D7DCFBFAF5F3F0E7E1CDCDB796CDEDED15
:1035E000FADCC4EDEDF3F5F5FCFCFBF7F5F3F0EDDB
:1035F000E7B0EDFAF5F3F0E7E1B7B7B7A2CDF7FA28
:10360000FBE7CDF3F3F5FAFCFCFBFAF5F3F3EDED94
:10361000E7E1B0E7F0EDE7E7E1B7C4C4A2D7FAFC11
:10362000FCEDD7F5F7FAFCFBF7EDDCF0EDEDE7C4C8
:10363000E1E1DCA2DCEDE7E7E1C4CDCDB0DCFCFCF0
:10364000FCEDD7F7FAFDFAF7F5F3F0EDEDE7E1E180
:10365000DCDCCDCDA2CDE1E7E7CDCDD7B0DCFAF70C
:10366000FCEDDCFBFDFBF7F5F0F0EDE7CBC5E1DCB5
:10367000D7CDCDC4B7A2CDE1EDD7DCD7B7E1F7F513
:10368000FCEDDCFCFAF7F3F0EDEDE74F948B2DD772
:10369000CDC4C4B7B7C4A2D7EDD7D7D7B7E1FCFC28
:1036A000FCE7F7F7F5F3F0EDE7E14F0B8977032D32
:1036B000C4B7B7C4CDD7D7B7E7E1E1E1B7E1FCFCC8
:1036C000FCFAF5F3F3EDEDE7E1C80B0D88760302A4
:1036D00097B7B7CDCDD7D7D7E1E1E1EDC4DCFBFAA1
:1036E000F7F5F3F0EDEDE1E1E1DCAA0B8876029766
:1036F000B7C4CDD7D7DCE1E1E1E1E7EDC4DCF5F318
:10370000F5F3F0DCEDE1E1DCD7D7CDA7746597C424
:10371000CDCDCDD7D7DCDCE1E1E7E7E1CDD7F0E7F0
:10372000F0EDEDCDE1E1E1D7D7CDC4B7B7B7C4CD6A
:10373000CDD7D7DCE1E1CDE7EDEDE7E7D7CDF3F38A
:10374000EDEDEDE1E1DCD7CDCDC4B7A2B7B7B7C49D
:10375000D7D7DCE1E1E7E7EDF0F0F5F5D7CDF0ED17
:10376000E7E1E1DCDCD7CDC4B7B796646464648A72
:10377000DCDCE1E1E7EDEDF0F3F3F7FADCC4E7E1DF
:10378000E1E1D7D7CDCDC4B7B7B7B096969696C47A
:10379000E1E1E1E7EDEDF0F3F5F7FBFBDCB7DCCDC4
:1037A000E1DCD7C4CDC4B7C4B0CDCDD7D7CDE1E12E
:1037B000E1DCCDEDF3F3C4F5FAFBF0EDE1A2D7CDFA
:1037C000CDCDCDC4C4C4C4C4CDCDCDCDCDD7D7D738
:1037D000D7D7D7D7D7DCDCE1E7E7EDEDC4000000B1
:1037E0000000120014004100820249026002C0027F
:1037F000C9030C0340036E03A003AF03C8086108AC
:1038000062088208A308C308C408E5090509A70AD5
:10381000820A8A0ACC10A210A310C310E41104116A
:103820000511261146116711681188120812ED134F
:103830002F135018C318E418F01904192519261964
:1038400045194619671987198819A919C919CA1973
:10385000EB1A0B1B432104212521452166216721F9
:1038600086218721A821A921C821C921CA21EB22AB
:103870000A220B220C222D224D224E2344294529B7
:1038800066298629A729A929C829E929EA29EB2A2D
:10389000092A0A2A0B2A0C2A2D2A4B2A4D2A6E2A7B
:1038A0006F2A8F2A903186318E31A731C731E831A6
:1038B000E93209322A324B324C326E32B032B132F6
:1038C000D132F23312332639C739D139F23A083AB4
:1038D000293A493A4A3A6B3A8C3A8E3AB03AD03A57
:1038E000D13AF23AF33B123B133B343B4D3B873B1F
:1038F000A8420842124249424A426B428B43334338
:10390000554376439643C944104A494A4D4A6A4A48
:103910008A4AAB4ACC4ACE4B0E4B314B954BD84CD6
:103920001952AA52EC530C530D532E534A5372534F
:103930009353CA53F753F95419543B545C5ACB5B15
:103940002D5B705B905BF55C4C5C9D630C634D6321
:103950006E638E638F63B063F46415647A649B64F2
:10396000DD64FE68006B4D6B516B8E6B8F6BED6B86
:10397000F26C126C2E6C99738E73D0743374547411
:103980007674D974DA74FD753E78007BCF7C317C17
:10399000957D1B7D1C8410845284D7857E88008C85
:1039A000518CB38CB48D5B8D9F900094929516953D
:1039B00038959B959C95DF9CD39E1FA000A514A5D0
:1039C000FDA63FAD55B000B596B67FBDD7BE9FC032
:1039D00000C618CE59D6BAE71C000000000000004F
:1039E00000000C000E00200041018601A001E00152
:1039F000E602080240026A0280028A02A500400034
:103A0000410041006200820082008300A301240182
:103A1000C101C701E8086108620882088208A2089B
:103A2000A308C408E408E408E5090509650A090AC9
:103A30002A0A4B10821082108B10A210C310C410DF
:103A4000E310E410E41104110511261126112711C9
:103A5000471167124210A210C310E310E410E411E2
:103A600004110411251126112511261127114711C2
:103A7000671167116811891189118A124218E318B8
:103A8000E419041924192619251946194719471943
:103A90006619671967196819891987198919AA197F
:103AA000AA19CA19CB2104210A2124212421452144
:103AB00046216621872187218821AA21CB21CC217B
:103AC000EC220C220C22242124212C214C216521C2
:103AD000862186218721A721C821CA21CB21EB215C
:103AE000EC220C220D220C220D222E2249226422CD
:103AF000852965296C2986298729A729C72A2D2A7E
:103B00004F2A6F2A6F2AA62ACB3186318931A731F5
:103B1000C731C731E831EA320A322C326F32B13262
:103B2000D239C73A083A083A093A2A3A473A6C3A37
:103B30006D3AA73AB03AB23AD23AF33B1439E73A7F
:103B4000293A6B3A6B3AAF3B083B34420842494250
:103B50006A426A426A428B42AE42CF4312433343C7
:103B600054437548004A494A4C4A6A4A6A4AA94A33
:103B7000AC4ACC4AEA4B32526A52AB52ED530E5326
:103B80000F53525352537453B5500052AA52EC5330
:103B90002F539353945ACB5B0C5B505BD5600063FF
:103BA0000C634D634E63B363F66000632C638F63F5
:103BB000B163F363F464166B4D6C567000738E74CE
:103BC0003474567BAF78007BEF7C968410849688A3
:103BD000008C51947294B2A4F40000000000060D11
:103BE00013191F252C32383E444A50565C62676DCB
:103BF00073787E83888E93989DA2A7ABB0B4B9BD2D
:103C0000C1C5C9CDD0D4D7DBDEE1E4E7E9ECEEF005
:103C1000F2F4F6F7F9FAFBFCFDFEFEFFFF010101ED
:103C20000106020202080000010000000301010079
:103C30000100020202060000000000000504070760
:103C4000000707000504000000070500030300004B
:103C500000000800050404040404050505001124FF
:103C60001FBECFEFDAE0DEBFCDBF11E0A0E0B1E0D4
:103C7000E8E9FBE502C005900D92A431B107D9F740
:103C800012E0A4E1B1E001C01D92A234B107E1F756
:103C90000E94501E0C94CA2D0C9400007698089532
:103CA00020E820936100109261009FEF95B994B9CC
:103CB0008FEE8BB99AB980E48DB991BB8FE080BB50
:103CC000769A81E885BF25BF0E94F71E0E940726CD
:103CD0008FB180950E94C625FBCF85B95A985D9813
:103CE0005998599A5D9A5A9A0895CF93DF935D989F
:103CF0005B9880E49CE9FC013197F1F75D9A5B9A4F
:103D00000197F1F7CCEAD0E006C0FE012196E491DC
:103D10008E2F0E946D1E80E0CD3DD807B1F75C9AD2
:103D2000DF91CF91089585E10E946D1E80E00E9491
:103D30006D1E8FE50E946D1E85E70E946D1E80E05E
:103D40000E946D1E8FE30E946D1E08958F929F92B8
:103D5000AF92BF92CF92DF92EF92FF920F931F9399
:103D6000B82EA62E942E822E0E94931E86E20E94CA
:103D70006D1E81E10E946D1E82E20E946D1E8B2DE0
:103D80000E946D1E8A2D0E946D1E892D0E946D1E3F
:103D9000882D0E946D1EDD24D594C794D594C794B8
:103DA0008C2D0E946D1EFF24F594E794F594E79402
:103DB0008E2D0E946D1E10E015950795159507959F
:103DC000802F0E946D1E8C2D0E946D1E8E2D0E94D4
:103DD0006D1E802F0E946D1E1F910F91FF90EF901E
:103DE000DF90CF90BF90AF909F908F900895CF922B
:103DF000EF920F930E94751E80E060E040E620E4A1
:103E00000FEFEE24CC240E94A61E0F91EF90CF90CE
:103E10000895AC015D989B016F3F710519F014F096
:103E20002FEF30E0922F621B7109FA010AC08081E6
:103E300085B95998599A818185B932965998599A74
:103E400021502223A1F7892F90E0880F991F480F56
:103E5000591F61157105F9F65D9A0895982FDB01D8
:103E60005D9810C0ED91F0E0EE0FFF1FE40FF51F1D
:103E7000849185B95998599A3196E491E5B9599840
:103E8000599A9150992371F75D9A0895CF92DF92D4
:103E9000EF92FF921F93182F7B016A0185E10E9428
:103EA0006D1E80E00E946D1E8FE50E946D1E85E7ED
:103EB0000E946D1E812F0E946D1E812F0E946D1E1B
:103EC00080E6B701A6010E942E1F1F91FF90EF9080
:103ED000DF90CF900895CF92DF92EF92FF921F93E1
:103EE000182F7B016A0185E10E946D1E812F0E94BF
:103EF0006D1E812F0E946D1E85E70E946D1E80E061
:103F00000E946D1E8FE30E946D1E80E4B701A60122
:103F10000E942E1F1F91FF90EF90DF90CF90089589
:103F20009EBD0DB407FEFDCF9EB58EBD0DB407FE40
:103F3000FDCF8EB57EBD0DB407FEFDCF7EB56EBD47
:103F40000DB407FEFDCF6EB50895899A9FEF94B921
:103F500085B1866085B99EBD0DB407FEFDCF8EB5D7
:103F60000895382F70E840E050E0E62FF0E0A1E03F
:103F700069E0832F90E026E0969587952A95E1F7F2
:103F8000282F2170872F90E08E239F23892B09F003
:103F90002A27330F2111362776954F5F5F4F483020
:103FA000510539F7832F8F7708957F928F929F92D3
:103FB000AF92BF92CF92DF92EF92FF920F931F9337
:103FC0005A016B01922E40E4E42EE80E80E06E2D43
:103FD0000E94B11F6D2D0E94B11F6C2D0E94B11F58
:103FE0006B2D0E94B11F6A2D0E94B11FF82EFF0C8D
:103FF00021E0F22A00E037EF732E88248A94899812
:1040000074B8EEBC0DB407FEFDCF8EB5B501C60188
:104010000E94901FFEBC0DB407FEFDCF8EB580E060
:1040200090E08EBC0DB407FEFDCF1EB517FF05C096
:10403000019620E180309207A1F7992039F013FF13
:1040400013C00E94A51F0F5F0530C9F6812F90E0B5
:104050001F910F91FF90EF90DF90CF90BF90AF90A6
:104060009F908F907F9008950E94A51FEFCFCF93D0
:10407000DF9383E090E0909315018093140183E532
:104080008CBD8DB58EB5899A8FEF84B985B1866068
:1040900085B980E09FEF9EBD0DB407FEFDCF2EB524
:1040A0008F5F8A30C1F780E040E050E060E070E070
:1040B00021E00E94D51F982F813009F044C080E58F
:1040C0008CBD9DBDCFEFDFEF8AE340E050E060E0C4
:1040D00070E020E00E94D51F8230C8F121978FEF59
:1040E000CF3FD807A1F1F0CF60E070E080E090E032
:1040F0000E94901F82FD03C00E94A51F24C0CFEF25
:10410000DFEF81E040E050E060E070E421E00E94F9
:10411000D51F2197882319F0209799F714C0CD2B2C
:1041200091F080E140E052E060E070E021E00E9428
:10413000D51F882341F482E090E09093150180938D
:10414000140180E001C083E0DF91CF910895CD2B71
:10415000B1F2CACFBF92CF92DF92EF92FF920F934C
:104160001F93CF93DF93EC017A018B01B22E80E590
:104170008CBDDD24CC24CA9455C0B801A701E9E068
:10418000440F551F661F771FEA95D1F781E120E0A4
:104190000E94D51F882389F42FEF3FE0CEBC0DB4D9
:1041A00007FEFDCF8EB58E3F31F02115310529F088
:1041B00021503040F3CF232B71F4899A8FEF84B9CB
:1041C00085B1866085B983E090E090931501809376
:1041D000140181E02BC0CEBCFE019FEF0DB407FEA1
:1041E000FDCF8EB5CEBC80830DB407FEFDCF8EB55E
:1041F000CEBC81833296992311F09150EFCFC050FD
:10420000DE4F0DB407FEFDCF8EB5CEBC0DB407FE5C
:10421000FDCF8EB50E94A51FD3940894E11CF11C1C
:10422000011D111DDB1408F4A8CF80E01CBCDF9138
:10423000CF911F910F91FF90EF90DF90CF90BF90A3
:104240000895EF92FF920F931F93FB019093430108
:1042500080934201709345016093440140E050E037
:1042600060E070E021E00995882309F068C0E091E2
:104270004201F0914301E254FE4FE084F184028553
:104280001385EE5BF140A0914401B0914501CF014F
:10429000B801A70121E0FD010995882309F04FC06D
:1042A000E0914201F09143018385948580509240D2
:1042B00009F045C085858093360110923701268527
:1042C000378540E050E02E0D3F1D401F511F808973
:1042D00090E066897789DC01A69FC001A79F900DB9
:1042E000B69F900D1124A0E0B0E0280F391F4A1F9F
:1042F0005B1F20933A0130933B0140933C01509364
:104300003D018189928975E0880F991F7A95E1F7BF
:10431000892F992786959093390180933801A0E0E1
:10432000B0E0280F391F4A1F5B1F20933E013093D6
:104330003F01409340015093410181E001C080E082
:104340001F910F91FF90EF900895AF92BF92CF927F
:10435000DF92EF92FF920F931F93CF93DF935C0155
:104360006B0186E191E060E070E0A601F50109953E
:10437000882319F06FEF7FE74DC0EE24FF2400E0A3
:1043800010E03EC0A80160E070E080913A01909199
:104390003B01A0913C01B0913D01480F591F6A1F9C
:1043A0007B1FE0914401F091450180914201909181
:1043B000430121E00995882309F5C0E0D0E0E091B0
:1043C0004201F0914301EC0FFD1F8081882301F130
:1043D000853E79F08385887161F4CF01B701A6012C
:1043E000F5010995882311F0B70114C00894E11C68
:1043F000F11CA09682E0C030D80709F70F5F1F4F6D
:1044000080913801909139010817190708F4BACF43
:104410006FEF7FEFCB01DF91CF911F910F91FF9055
:10442000EF90DF90CF90BF90AF9008950F931F93C0
:10443000CF93DF938C01EA01A885B98520E030E0B5
:104440009D919E3299F0992309F446C0892F815697
:104450008A3108F49052F801E20FF31F8081981717
:10446000D9F52F5F3F4F2830310551F7F801628DA4
:10447000738D6250704080E090E020913601309161
:10448000370140E050E00E94312D20913E013091F3
:104490003F014091400150914101260F371F481FB5
:1044A000591F288339834A835B83F801848D958D56
:1044B000A68DB78D8C839D83AE83BF83F1E00631DB
:1044C0001F0741F0A6E1B1E0F80180E201900D92F2
:1044D0008150E1F781E001C080E0DF91CF911F9131
:1044E0000F910895EF92FF920F931F93DF93CF9355
:1044F000CDB7DEB72A970FB6F894DEBF0FBECDBF9B
:104500008B017A019A878987309343012093420176
:1045100086E192E2BE016F5F7F4F0E94A521298153
:104520003A814B815C81F80120833183428353833C
:104530002D813E814F815885F7012083318342834D
:10454000538320E08F5F9F4F09F021E0822F2A964E
:104550000FB6F894DEBF0FBECDBFCF91DF911F9194
:104560000F91FF90EF9008958F929F92AF92BF921C
:10457000CF92DF92EF92FF920F931F93DF93CF932F
:10458000CDB7DEB7CA51D2400FB6F894DEBF0FBE2A
:10459000CDBF6C018B01B42EA52EEBE0EE2EF12CDD
:1045A000EC0EFD1EC7010E945026C701B8010E94F3
:1045B0007127882319F42FEF3FEFB4C0C70140E003
:1045C00050E060E070E00E94CE26C701BE016B5F44
:1045D0007F4F46E050E00E944E278D819E818E568F
:1045E000944609F056C00B2D1A2D0115110509F43A
:1045F00050C089859A858017910708F44AC0A801A0
:10460000440F551F4E5F5F4F60E070E0C7010E948E
:10461000CE268DE990E0C80ED91E8F81988504962C
:10462000F6019183808383E69FEFC80ED91EC701F0
:10463000BE016F5F7F4F44E050E00E944E27013083
:10464000110511F41A82198249815A81EB80FC808C
:10465000E41AF50A90E8E916F1041CF060E8E62E89
:10466000F12C8E01055F1F4F4A5F5F4F89859A8548
:10467000880F991F480F591F60E070E0C8010E9421
:10468000CE26B6016A5F7F4FC801A7010E944E2760
:1046900003C0EE24EA94FE2CF601E58220EAA22E65
:1046A000B12CAC0CBD1CF50110828FE990E0C80E56
:1046B000D91EF601108281E69FEFC80ED91E96E042
:1046C000892E912C8C0C9D1C00E010E024C0F6017A
:1046D000E00FF11F86818136B1F4F7809CE09F15D1
:1046E00010F48CE0F82EB8016E5F7F4F680D791DD5
:1046F000C5014F2D50E00E94BB2DF601EF0DF11DBD
:10470000E056FF4F1082F601E00FF11F878190E025
:104710000296080F191FF6018581282F30E0021735
:104720001307ACF2C901C65EDD4F0FB6F894DEBFC9
:104730000FBECDBFCF91DF911F910F91FF90EF90F2
:10474000DF90CF90BF90AF909F908F9008958F9201
:104750009F92AF92BF92CF92DF92EF92FF920F9310
:104760001F93CF93DF93EC018D81482F50E020E021
:1047700030E076C0FE01E20FF31F8681DF0117965D
:10478000861709F068C0F9013896EC0FFD1F8C916F
:104790009F01280F311D4FEF5FEF88248A94982CDA
:1047A0005401EE24EA94FE2C87011EC0DF0111960D
:1047B00080818032B1F0803409F04BC08D919C91A2
:1047C00011977C010027F7FC0095102F12968D9110
:1047D0009C9113974C01AA2497FCA094BA2C35966F
:1047E00003C0418152813396E217F307F8F2F6E8ED
:1047F000CF2ED12CCC0EDD1ECE01B6010E94B422EC
:10480000C801B70120E030E340E050E00E94312DC4
:104810007B018C01C356DF4F88819981AA2797FDC0
:10482000A095BA2FE80EF91E0A1F1B1F2A97C992DE
:10483000D992E992F99209931993C501B4010E94A2
:10484000312DE60EF71E081F191FE882F9820A8330
:104850001B8381E00AC0878190E00296280F391FF0
:10486000241735070CF486CF80E0DF91CF911F919C
:104870000F91FF90EF90DF90CF90BF90AF909F90FF
:104880008F900895CF93DF93EC01C156DF4F88815D
:10489000CF59D0408133B9F0823320F4803309F00E
:1048A00052C00DC08D3499F0883509F04CC00E947B
:1048B0004E1EC056DF4F1882C05AD0403BC0CE01BA
:1048C0000E948E2834C0CE010E94BA2930C08A814D
:1048D00084FD14C0FE01EB56FF4FC756DF4F208109
:1048E00031814281538188819981AA81BB81C959D3
:1048F000D040281739074A075B07A9F4C056DF4F95
:104900001882C05AD040FE01EB56FF4FC756DF4F0A
:1049100088819981AA81BB81C959D04080839183C4
:10492000A283B38307C0CE010E94A6240CC08F5F70
:104930009F4F49F4C156DF4F1882CF59D040CE0166
:1049400063E00E94A723DF91CF9108956F927F9239
:104950008F929F92AF92BF92CF92DF92EF92FF928F
:104960000F931F93DF93CF93CDB7DEB7C252D440DE
:104970000FB6F894DEBF0FBECDBF7C0105E9A02EB7
:10498000B12CA80EB91E19E9812E912C880E991E02
:10499000D5012D913D914D915C91F40180819181E2
:1049A000A281B381281739074A075B0709F054C071
:1049B000B0EACB2ED12CCE0CDF1CD6018C918A33E1
:1049C000C1F4F701E156FF4F21EA30E0E20EF31E99
:1049D000D7018C912FE53FEFE20EF31E8083D701C4
:1049E00013961C92C7010E94422481E0F701838341
:1049F000B7C0882309F4B4C0F701E156FF4F8081A6
:104A0000882309F0ADC08DE480838E010D5E1D4FBB
:104A1000C8010E945026C801B6010E947127882350
:104A200009F49EC0C8010E946A2623E930E0E20E24
:104A3000F31ED701CD92DC9220E032E040E050E05E
:104A4000F5012083318342835383D4016D937D9399
:104A50008D939C93139784C08E010D5F1F4FC801E7
:104A60000E945026E3E9F0E0EE0EFF1ED7016D91A3
:104A70007C91EDE6FFEFEE0EFF1EC8010E9471274C
:104A80000E94931EDD24902EC12E85013E010894C4
:104A9000611C711CD8014D915D916D917C91892DA6
:104AA0009C2D0E94CE26F80180819181A281B38144
:104AB00080509E4FAF4FBF4F80839183A283B383BB
:104AC000892D9C2DB3010E94F02669817A8175950C
:104AD00067950E94091FD394F8E1DF16D9F62FE9F4
:104AE00030E0E20EF31ED7018C91E1E6FFEFEE0E0F
:104AF000FF1E8D34A9F5D5012D913D914D915C910D
:104B0000F701808186FF05C020503042414050406F
:104B100006C087FF04C0205030414F4F5F4F121630
:104B2000130614061506E4F469E970E0E60EF71EB4
:104B3000F70180819181A281B38167E67FEFE60E64
:104B4000F71E281739074A075B0754F485E990E0F8
:104B5000E80EF91ED7012D933D934D935C93139767
:104B6000CE5DDB4F0FB6F894DEBF0FBECDBFCF9149
:104B7000DF911F910F91FF90EF90DF90CF90BF904A
:104B8000AF909F908F907F906F9008950F931F9399
:104B9000CF93DF9320914A01282780934A01809385
:104BA0004601922F982390934701809528232093C4
:104BB00048018091E501882329F086E491E00E9474
:104BC000422420C086E491E00E94A62480914801FE
:104BD0008823C1F0C4E0D0E0082F10E0C8010C2EFB
:104BE00002C0959587950A94E2F780FF07C0CE0131
:104BF0008350682F86E491E00E94A7232196C83055
:104C0000D10561F7DF91CF911F910F9108950F9317
:104C10001F93DF93CF93CDB7DEB7C050D2400FB60E
:104C2000F894DEBF0FBECDBF0E943720CE010196A3
:104C300062E776E20E94212110924A011092490116
:104C40001092DF011092E0011092E1011092E20156
:104C50001092DB011092DC011092DD011092DE0156
:104C600000E011E08CEC91E0B8010E94B42D86E4E4
:104C700091E0B80141E050E00E94B42286EE91E05C
:104C800069E071E00E94B42DC050DE4F0FB6F89479
:104C9000DEBF0FBECDBFCF91DF911F910F91089561
:104CA000FC01E050FE4F80E092E0819391931192DD
:104CB00011928FEF9FEFAFEFBFEF81939193A1938D
:104CC000B193119211921192119280839183A283D8
:104CD000B3830895FC01E45FFD4F6081718182819F
:104CE000938108950E94AA2008950F931F938B012A
:104CF0009C01CA01B901A80121E00E94AA201F91CC
:104D00000F910895CF93DF93EC019A01AB01C0504E
:104D1000DE4F19821882C050D240FE01EC5FFD4F79
:104D200080819181A281B38182179307A407B5077F
:104D300091F12083318342835383CE5FDD4F88819D
:104D40009981C250D2400097B9F0A901542F44274D
:104D5000550F480F591F20E030E0FA01E20FF31F12
:104D6000E491DE01A20FB31FEC932F5F3F4F82E06F
:104D70002030380791F70FC0C85FDD4F6881798117
:104D80008A819B81C850D240620F731F841F951F78
:104D9000AE010E947526DF91CF910895CF92DF92E8
:104DA000EF92FF920F931F938C016A017B01E9E060
:104DB0007595679557954795EA95D1F70E94822694
:104DC00000501E4F8FEF91E0C822D922F801D18206
:104DD000C0821F910F91FF90EF90DF90CF900895C8
:104DE0000F931F93CF93DF93EC018B01C050DE4FE5
:104DF00088819981C050D2408050924079F4CC5F34
:104E0000DD4F488159816A817B81C450D2404F5F18
:104E10005F4F6F4F7F4FCE010E948226FE01E05010
:104E2000FE4F80E092E020813181821B930BD801FC
:104E30008D939C93208131812C0F3D1FC901DF91FF
:104E4000CF911F910F910895CF93DF93EC01C05044
:104E5000DE4F88819981C050D2408050924079F4D1
:104E6000CC5FDD4F488159816A817B81C450D2403B
:104E70004F5F5F4F6F4F7F4FCE010E948226FE0132
:104E8000E050FE4F20813181C20FD31F88812F5FF8
:104E90003F4F31832083DF91CF910895CF92DF92EE
:104EA000EF92FF920F931F93CF93DF936C017B01DF
:104EB0008A01C0E0D0E008C0C6010E942427F701A3
:104EC000EC0FFD1F80832196C017D107ACF3C801FA
:104ED000DF91CF911F910F91FF90EF90DF90CF90D6
:104EE0000895CF93DF93EC01CB01BE01685F7D4F46
:104EF000AE01445F5D4F9E010E947222882341F003
:104F0000CE0140E050E060E070E00E94822681E047
:104F1000DF91CF9108952F923F924F925F926F92BF
:104F20007F928F929F92AF92BF92CF92DF92EF9239
:104F3000FF920F931F93DF93CF93CDB7DEB7C25687
:104F4000D0400FB6F894DEBF0FBECDBF7C018B0101
:104F50001A01A2962FAFA297FC0180809180428017
:104F60005380DD24612C42E0742E680C791C5E01B4
:104F70000894A11CB11CF8018491682F70E02114E1
:104F8000310419F0709561957F4F0F5F1F4FF80145
:104F9000849101501040482F50E0493C51051CF0CD
:104FA00080E090E088C0440D551DCA0134E095951D
:104FB00087953A95E1F790E0FC0123E0F595E795B8
:104FC0002A95E1F73296EE0FFF1FEE0DFF1D877059
:104FD0009070A3E0880F991FAA95E1F72081318195
:104FE000280F391F5FE0C52EC422CB01880D991D03
:104FF00043E0959587954A95E1F7A82FB0E0FD012C
:1050000084E0F595E7958A95E1F7E770F070E20F97
:10501000F31F8491A3968FAFA397C301861B970BB1
:10502000E3E095958795EA95E1F7482F50E0CA01AE
:1050300074E0959587957A95E1F787709070280FC1
:10504000391FF9019491A396FFADA397FF2311F4A3
:1050500080E019C0A3968FADA397E82FF0E03197B9
:1050600064E0EE0FFF1F6A95E1F7EC0DF11D34E0EF
:10507000EE0FFF1F3A95E1F7AF70B070EA0FFB1F1C
:10508000E352F14F84919923B1F0E92FF0E0319789
:1050900024E0EE0FFF1F2A95E1F7EC0DF11D94E0DF
:1050A000EE0FFF1F9A95E1F74F705070E40FF51F58
:1050B000E352F14F9491F501ED0DF11D8083D394EE
:1050C00080E68D19F501E80FF11D9083E0E3DE160F
:1050D00019F00E5F1F4F4FCFA2968FADA297B5016B
:1050E0004DED5CE00E94461FCE59DF4F0FB6F8949D
:1050F000DEBF0FBECDBFCF91DF911F910F91FF900B
:10510000EF90DF90CF90BF90AF909F908F907F9067
:105110006F905F904F903F902F9008950F931F9343
:10512000CF93DF93FC018381882321F51092F60150
:105130001092F5011092F4011092F30110923702CF
:1051400010923802E7EFF1E06DED76E14DE157E1C5
:105150002DE537E18DE997E17183608353834283C5
:1051600035832483978386833896A2E0E733FA0752
:1051700099F77CC0828184FF03C02FEF3FEF78C096
:10518000808186FF0BC08091380287FF02C0109299
:105190003802809138028031CCF415C087FF0BC0F3
:1051A00080913802181614F4109238028091380257
:1051B000813F64F004C080913802181614F48150C5
:1051C00003C0882319F08F5F80933802808185FFA8
:1051D00006C080913702883048F48F5F05C0809107
:1051E0003702882319F0815080933702809138026A
:1051F000992787FD90952091F3013091F401820F5A
:10520000931F9093F4018093F3018091F5019091A5
:10521000F601019620913702820F911D9093F601BD
:105220008093F50120E0CDEDD0E0122F1F5F83EFDA
:1052300091E0BE0140E050E00E948B27C05ADF4F52
:10524000103211F0212FF1CFCDEDDCE0C056D0406F
:10525000012F0F5F83EF91E0BE0141E050E0212F6D
:105260000E948B27003411F0102FF0CF20E030E0A7
:10527000C901DF91CF911F910F910895482F282FD9
:1052800030E0C9018F779070892B19F4E0E0F0E0ED
:1052900012C0E42FEF7346FF03C08FE38E1BE82F8D
:1052A000F0E0E352F44CE491F0E0319647FF03C0A4
:1052B000F095E195FF4FCF010895805C0E943E2953
:1052C000089595958795843091052CF42FEF3FEF45
:1052D0004FEF5FE70FC09C01442737FD4095542FE7
:1052E00060E070E080E090E80E94632DC901DA017F
:1052F0009C01AD01B901CA010895FC018081918131
:10530000680F791F82819381480F591F6052704046
:10531000872F992787FD9A95382F40525040852F27
:10532000992787FD9A95605C7F4F672F770F770BE2
:10533000405C5F4F452F550F550B12C0E22FF0E038
:1053400053E0EE0FFF1F5A95E1F7EA0FFB1FE35EF4
:10535000F34CE491EE2361F42F5F421778F73F5F3F
:10536000631710F480E00895282FA32FB0E0F5CF45
:1053700081E008952F923F924F925F926F927F92B9
:105380008F929F92AF92BF92CF92DF92EF92FF9255
:105390000F931F93DF93CF93CDB7DEB7C955D0409E
:1053A0000FB6F894DEBF0FBECDBFFC01838188230A
:1053B000B9F41092400210923F0210923D021092F6
:1053C000410210923E0280E893E090933A0280936B
:1053D000390280E094E090933C0280933B021FC32B
:1053E000828184FF03C02FEF3FEF1BC38081482FD2
:1053F00086FF0BC08091410287FF02C010924102DC
:10540000809141028032CCF415C087FF0BC080919F
:105410004102181614F41092410280914102813E1B
:1054200064F004C080914102181614F4815003C046
:10543000882319F08F5F8093410280914102882375
:10544000A1F0992787FD909520913F02309140026D
:10545000820F931F9093400280933F02B4E0969591
:105460008795BA95E1F780933D0245FF07C080918B
:105470003E02803208F06CC08F5F68C080913E02AF
:10548000882309F465C061C0F0903D028F2D0E9411
:105490005D2910E095958795089F6001099FD00CC4
:1054A000189FD00C1124CC0CCD2CCC1CDD088F2DDA
:1054B0000E943E2995958795809F7001819FF00CF1
:1054C000909FF00C1124EE0CEF2CEE1CFF0889E3EA
:1054D00092E0B601A7010E947D298823B9F089E3F3
:1054E00092E060E070E0A7010E947D29882319F412
:1054F000CC24DD240BC089E392E0B60140E050E00B
:105500000E947D29882311F4EE24FF2489E392E090
:10551000B601A7010E947D298823A9F48091390250
:1055200090913A02C80ED91ED0923A02C092390226
:1055300080913B0290913C02E80EF91EF0923C02F1
:10554000E0923B020AC080913E02815080933E026D
:1055500000913E02002309F097CFF0903D028F2D7D
:105560000E943E298C0166E0000F111F6A95E1F749
:105570008F2D0E945D299C0156E0220F331F5A9502
:10558000E1F72901401A510A28965FAE4EAE2897DE
:105590003901600E711E2A967FAE6EAE2A97C80141
:1055A00060E370E00E94502D65966FAF6597669638
:1055B0007FAF6697C90160ED7FEF0E94502D67961F
:1055C0006FAF679768967FAF68972B961FAE2B9744
:1055D00020E626962FAF2697AE014F5F5F4F6A9663
:1055E0005FAF4EAF6A9728968EAD9FAD289797FF15
:1055F00003C0909581959F4F0E9461292F966CAFB3
:105600007DAF8EAF9FAF2F972A968EAD9FAD2A9715
:1056100097FF03C0909581959F4F0E9461294B0190
:105620005C0128968EAD9FAD289797FD05C091E04F
:1056300060969FAF609704C0AFEF6096AFAF609782
:105640002A96EEADFFAD2A97F7FD05C0F1E0619611
:10565000FFAF619704C02FEF61962FAF6197009164
:10566000390210913A0220903B0230903C0262963F
:105670000FAF629763962FAE639728964EAD5FADDE
:1056800028971416150614F0602F04C062966FADAB
:10569000629760952A968EAD9FAD2A9718161906C7
:1056A00024F06396DFAC639704C06396DFAC639726
:1056B000D094812F992787FD9A95E82E832D9927DD
:1056C00087FD9A95F82E70E0882777FD8095982FB2
:1056D0002F964CAC5DAC6EAC7FAC2F97552777FC0A
:1056E0005A95472D362D252D0E94312D25966CAFCC
:1056F0007DAF8EAF9FAF25976D2D70E0882777FD2A
:105700008095982F5527B7FC5A954B2D3A2D292D6A
:105710000E94312D2B013C0125962CAD3DAD4EADA7
:105720005FAD259742165306640675060CF061C0FE
:1057300061963FAD6197F30E6F2D70E0FB01A3E022
:10574000EE0FFF1FAA95E1F7EE0DF11DE35EF34C9E
:10575000449164964FAF6497442309F47DC1289621
:105760008EAD9FAD28974C01AA2497FCA094BA2C2B
:105770002A96AEADBFAD2A976D01EE24D7FCE0941A
:10578000FE2C3130B1F4762F662762197309882711
:1057900077FD8095982FA50194010E94312DA701D6
:1057A00096010E94852D022F6296BFAD62970B0F66
:1057B00018C06F5F7F4F762F66276219730988279D
:1057C00077FD8095982FA50194010E94312DA701A6
:1057D00096010E94852D022F6296EFAD62970E0F03
:1057E000019525964CAE5DAE6EAE7FAE259711E06D
:1057F00074C06096FFAD6097EF0E6E2D70E0EF2DD8
:10580000F0E043E0EE0FFF1F4A95E1F7E60FF71FC8
:10581000E35EF34C249164962FAF64972223B9F48E
:1058200025968CAD9DADAEADBFAD25972F962CAD19
:105830003DAD4EAD5FAD2F97820F931FA41FB51FD7
:1058400025968CAF9DAFAEAFBFAF259765CF28969D
:105850004EAD5FAD28974A01AA2497FCA094BA2CBC
:105860002A968EAD9FAD2A976C01EE24D7FCE0946A
:10587000FE2C60969FAD60979130B1F4762F66272D
:10588000601B710B882777FD8095982FA7019601E3
:105890000E94312DA50194010E94852D022F63964F
:1058A000AFAD63970A0F18C06F5F7F4F762F6627E3
:1058B000601B710B882777FD8095982FA7019601B3
:1058C0000E94312DA50194010E94852D022F63961F
:1058D000BFAD63970B0F019510E025966CAD7DADC4
:1058E0008EAD9FAD259720E036E040E050E00E946D
:1058F000852D112329F49DEDA92E97E3B92E04C01F
:105900008DEDA82E89E3B82E6496EFAD6497E15033
:105910006E2F70E015E0660F771F1A95E1F7802F64
:1059200090E0B3E095958795BA95E1F7680F791FF8
:10593000A5E0660F771FAA95E1F76352784E80E0E5
:1059400090E1821B930B6A96AEADBFAD6A97E0E41F
:105950001D92EA95E9F78E010F5D1F4FF2E2EF2EDF
:10596000F12CEC0EFD1E40E2A0E0B0E1CC24DD24E1
:10597000C21AD30A1CC0E92FFF27E7FDFA95E60FEC
:10598000F71F9490F8019082EB2FFF27E7FDFA951F
:10599000E60FF71F9490F70191927F01015010409C
:1059A000423039F08C0D9D1DA20FB31F415097FF5F
:1059B000E2CF2B968FAD2B97BE016F5F7F4FA50176
:1059C0000E946B1F2B96FFAD2B97FF5F2B96FFAFAF
:1059D0002B9726962FAD2697215026962FAF2697E8
:1059E0002223E9F028964EAD5FAD289766968EADDE
:1059F0009FAD6697480F591F28965FAF4EAF289707
:105A00002A96AEADBFAD2A976896EEADFFAD68970A
:105A1000AE0FBF1F2A96BFAFAEAF2A97E4CD20E0EE
:105A200030E0C901C75ADF4F0FB6F894DEBF0FBE92
:105A3000CDBFCF91DF911F910F91FF90EF90DF903D
:105A4000CF90BF90AF909F908F907F906F905F901E
:105A50004F903F902F900895480C591C6A1C7B1C56
:105A60005BCE629FD001739FF001829FE00DF11D1C
:105A7000649FE00DF11D929FF00D839FF00D749FC8
:105A8000F00D659FF00D9927729FB00DE11DF91F74
:105A9000639FB00DE11DF91FBD01CF0111240895D1
:105AA00097FB092E07260AD077FD04D049D006D0EF
:105AB00000201AF4709561957F4F0895F6F7909540
:105AC00081959F4F0895A1E21A2EAA1BBB1BFD01D1
:105AD0000DC0AA1FBB1FEE1FFF1FA217B307E407CD
